{
  "contractName": "SupplyChain",
  "abi": [
    {
      "constant": false,
      "inputs": [
        {
          "name": "account",
          "type": "address"
        }
      ],
      "name": "addConsumer",
      "outputs": [],
      "payable": false,
      "stateMutability": "nonpayable",
      "type": "function"
    },
    {
      "constant": true,
      "inputs": [
        {
          "name": "account",
          "type": "address"
        }
      ],
      "name": "isManufacturer",
      "outputs": [
        {
          "name": "",
          "type": "bool"
        }
      ],
      "payable": false,
      "stateMutability": "view",
      "type": "function"
    },
    {
      "constant": true,
      "inputs": [
        {
          "name": "account",
          "type": "address"
        }
      ],
      "name": "isRetailer",
      "outputs": [
        {
          "name": "",
          "type": "bool"
        }
      ],
      "payable": false,
      "stateMutability": "view",
      "type": "function"
    },
    {
      "constant": false,
      "inputs": [
        {
          "name": "account",
          "type": "address"
        }
      ],
      "name": "addManufacturer",
      "outputs": [],
      "payable": false,
      "stateMutability": "nonpayable",
      "type": "function"
    },
    {
      "constant": false,
      "inputs": [],
      "name": "renounceConsumer",
      "outputs": [],
      "payable": false,
      "stateMutability": "nonpayable",
      "type": "function"
    },
    {
      "constant": false,
      "inputs": [],
      "name": "renounceOwnership",
      "outputs": [],
      "payable": false,
      "stateMutability": "nonpayable",
      "type": "function"
    },
    {
      "constant": true,
      "inputs": [
        {
          "name": "account",
          "type": "address"
        }
      ],
      "name": "isConsumer",
      "outputs": [
        {
          "name": "",
          "type": "bool"
        }
      ],
      "payable": false,
      "stateMutability": "view",
      "type": "function"
    },
    {
      "constant": true,
      "inputs": [],
      "name": "owner",
      "outputs": [
        {
          "name": "",
          "type": "address"
        }
      ],
      "payable": false,
      "stateMutability": "view",
      "type": "function"
    },
    {
      "constant": false,
      "inputs": [
        {
          "name": "account",
          "type": "address"
        }
      ],
      "name": "addRetailer",
      "outputs": [],
      "payable": false,
      "stateMutability": "nonpayable",
      "type": "function"
    },
    {
      "constant": true,
      "inputs": [],
      "name": "isOwner",
      "outputs": [
        {
          "name": "",
          "type": "bool"
        }
      ],
      "payable": false,
      "stateMutability": "view",
      "type": "function"
    },
    {
      "constant": false,
      "inputs": [],
      "name": "renounceRetailer",
      "outputs": [],
      "payable": false,
      "stateMutability": "nonpayable",
      "type": "function"
    },
    {
      "constant": false,
      "inputs": [],
      "name": "renounceManufacturer",
      "outputs": [],
      "payable": false,
      "stateMutability": "nonpayable",
      "type": "function"
    },
    {
      "constant": false,
      "inputs": [
        {
          "name": "newOwner",
          "type": "address"
        }
      ],
      "name": "transferOwnership",
      "outputs": [],
      "payable": false,
      "stateMutability": "nonpayable",
      "type": "function"
    },
    {
      "inputs": [],
      "payable": true,
      "stateMutability": "payable",
      "type": "constructor"
    },
    {
      "anonymous": false,
      "inputs": [
        {
          "indexed": false,
          "name": "upc",
          "type": "uint256"
        }
      ],
      "name": "Procured",
      "type": "event"
    },
    {
      "anonymous": false,
      "inputs": [
        {
          "indexed": false,
          "name": "upc",
          "type": "uint256"
        }
      ],
      "name": "Created",
      "type": "event"
    },
    {
      "anonymous": false,
      "inputs": [
        {
          "indexed": false,
          "name": "upc",
          "type": "uint256"
        }
      ],
      "name": "ForSale",
      "type": "event"
    },
    {
      "anonymous": false,
      "inputs": [
        {
          "indexed": false,
          "name": "upc",
          "type": "uint256"
        }
      ],
      "name": "Sold",
      "type": "event"
    },
    {
      "anonymous": false,
      "inputs": [
        {
          "indexed": false,
          "name": "upc",
          "type": "uint256"
        }
      ],
      "name": "Shipped",
      "type": "event"
    },
    {
      "anonymous": false,
      "inputs": [
        {
          "indexed": false,
          "name": "upc",
          "type": "uint256"
        }
      ],
      "name": "Received",
      "type": "event"
    },
    {
      "anonymous": false,
      "inputs": [
        {
          "indexed": false,
          "name": "upc",
          "type": "uint256"
        }
      ],
      "name": "Displayed",
      "type": "event"
    },
    {
      "anonymous": false,
      "inputs": [
        {
          "indexed": false,
          "name": "upc",
          "type": "uint256"
        }
      ],
      "name": "Purchased",
      "type": "event"
    },
    {
      "anonymous": false,
      "inputs": [
        {
          "indexed": false,
          "name": "upc",
          "type": "uint256"
        }
      ],
      "name": "Packed",
      "type": "event"
    },
    {
      "anonymous": false,
      "inputs": [
        {
          "indexed": false,
          "name": "upc",
          "type": "uint256"
        }
      ],
      "name": "CReceived",
      "type": "event"
    },
    {
      "anonymous": false,
      "inputs": [
        {
          "indexed": true,
          "name": "account",
          "type": "address"
        }
      ],
      "name": "ConsumerAdded",
      "type": "event"
    },
    {
      "anonymous": false,
      "inputs": [
        {
          "indexed": true,
          "name": "account",
          "type": "address"
        }
      ],
      "name": "ConsumerRemoved",
      "type": "event"
    },
    {
      "anonymous": false,
      "inputs": [
        {
          "indexed": true,
          "name": "account",
          "type": "address"
        }
      ],
      "name": "RetailerAdded",
      "type": "event"
    },
    {
      "anonymous": false,
      "inputs": [
        {
          "indexed": true,
          "name": "account",
          "type": "address"
        }
      ],
      "name": "RetailerRemoved",
      "type": "event"
    },
    {
      "anonymous": false,
      "inputs": [
        {
          "indexed": true,
          "name": "account",
          "type": "address"
        }
      ],
      "name": "ManufacturerAdded",
      "type": "event"
    },
    {
      "anonymous": false,
      "inputs": [
        {
          "indexed": true,
          "name": "account",
          "type": "address"
        }
      ],
      "name": "ManufacturerRemoved",
      "type": "event"
    },
    {
      "anonymous": false,
      "inputs": [
        {
          "indexed": true,
          "name": "oldOwner",
          "type": "address"
        },
        {
          "indexed": true,
          "name": "newOwner",
          "type": "address"
        }
      ],
      "name": "TransferOwnership",
      "type": "event"
    },
    {
      "constant": false,
      "inputs": [],
      "name": "kill",
      "outputs": [],
      "payable": false,
      "stateMutability": "nonpayable",
      "type": "function"
    },
    {
      "constant": false,
      "inputs": [
        {
          "name": "_upc",
          "type": "uint256"
        },
        {
          "name": "_originManufacturerID",
          "type": "address"
        },
        {
          "name": "_originManufacturerName",
          "type": "string"
        },
        {
          "name": "_originManufacturerInformation",
          "type": "string"
        },
        {
          "name": "_originManufacturerCity",
          "type": "string"
        },
        {
          "name": "_originManufacturerCountry",
          "type": "string"
        },
        {
          "name": "_productNotes",
          "type": "string"
        }
      ],
      "name": "procureItem",
      "outputs": [],
      "payable": false,
      "stateMutability": "nonpayable",
      "type": "function"
    },
    {
      "constant": false,
      "inputs": [
        {
          "name": "_upc",
          "type": "uint256"
        }
      ],
      "name": "createItem",
      "outputs": [],
      "payable": false,
      "stateMutability": "nonpayable",
      "type": "function"
    },
    {
      "constant": false,
      "inputs": [
        {
          "name": "_upc",
          "type": "uint256"
        },
        {
          "name": "_price",
          "type": "uint256"
        }
      ],
      "name": "sellItem",
      "outputs": [],
      "payable": false,
      "stateMutability": "nonpayable",
      "type": "function"
    },
    {
      "constant": false,
      "inputs": [
        {
          "name": "_upc",
          "type": "uint256"
        }
      ],
      "name": "buyItem",
      "outputs": [],
      "payable": true,
      "stateMutability": "payable",
      "type": "function"
    },
    {
      "constant": false,
      "inputs": [
        {
          "name": "_upc",
          "type": "uint256"
        }
      ],
      "name": "shipItem",
      "outputs": [],
      "payable": false,
      "stateMutability": "nonpayable",
      "type": "function"
    },
    {
      "constant": false,
      "inputs": [
        {
          "name": "_upc",
          "type": "uint256"
        }
      ],
      "name": "receiveItem",
      "outputs": [],
      "payable": false,
      "stateMutability": "nonpayable",
      "type": "function"
    },
    {
      "constant": false,
      "inputs": [
        {
          "name": "_upc",
          "type": "uint256"
        }
      ],
      "name": "displayItem",
      "outputs": [],
      "payable": false,
      "stateMutability": "nonpayable",
      "type": "function"
    },
    {
      "constant": false,
      "inputs": [
        {
          "name": "_upc",
          "type": "uint256"
        }
      ],
      "name": "purchaseItem",
      "outputs": [],
      "payable": true,
      "stateMutability": "payable",
      "type": "function"
    },
    {
      "constant": false,
      "inputs": [
        {
          "name": "_upc",
          "type": "uint256"
        }
      ],
      "name": "packItem",
      "outputs": [],
      "payable": false,
      "stateMutability": "nonpayable",
      "type": "function"
    },
    {
      "constant": false,
      "inputs": [
        {
          "name": "_upc",
          "type": "uint256"
        }
      ],
      "name": "creceiveItem",
      "outputs": [],
      "payable": false,
      "stateMutability": "nonpayable",
      "type": "function"
    },
    {
      "constant": true,
      "inputs": [
        {
          "name": "_upc",
          "type": "uint256"
        }
      ],
      "name": "fetchItemBufferOne",
      "outputs": [
        {
          "name": "itemSKU",
          "type": "uint256"
        },
        {
          "name": "itemUPC",
          "type": "uint256"
        },
        {
          "name": "ownerID",
          "type": "address"
        },
        {
          "name": "originManufacturerID",
          "type": "address"
        },
        {
          "name": "originManufacturerName",
          "type": "string"
        },
        {
          "name": "originManufacturerInformation",
          "type": "string"
        },
        {
          "name": "originManufacturerCity",
          "type": "string"
        },
        {
          "name": "originManufacturerCountry",
          "type": "string"
        }
      ],
      "payable": false,
      "stateMutability": "view",
      "type": "function"
    },
    {
      "constant": true,
      "inputs": [
        {
          "name": "_upc",
          "type": "uint256"
        }
      ],
      "name": "fetchItemBufferTwo",
      "outputs": [
        {
          "name": "itemSKU",
          "type": "uint256"
        },
        {
          "name": "itemUPC",
          "type": "uint256"
        },
        {
          "name": "productID",
          "type": "uint256"
        },
        {
          "name": "productNotes",
          "type": "string"
        },
        {
          "name": "productPrice",
          "type": "uint256"
        },
        {
          "name": "itemState",
          "type": "uint8"
        },
        {
          "name": "retailerID",
          "type": "address"
        },
        {
          "name": "consumerID",
          "type": "address"
        }
      ],
      "payable": false,
      "stateMutability": "view",
      "type": "function"
    }
  ],
  "bytecode": "0x6080604052336000806101000a81548173ffffffffffffffffffffffffffffffffffffffff021916908373ffffffffffffffffffffffffffffffffffffffff1602179055506000809054906101000a900473ffffffffffffffffffffffffffffffffffffffff1673ffffffffffffffffffffffffffffffffffffffff16600073ffffffffffffffffffffffffffffffffffffffff167f5c486528ec3e3f0ea91181cff8116f02bfa350e03b8b6f12e00765adbb5af85c60405160405180910390a3620000da3362000165640100000000026401000000009004565b620000f433620001cf640100000000026401000000009004565b6200010e3362000239640100000000026401000000009004565b33600460006101000a81548173ffffffffffffffffffffffffffffffffffffffff021916908373ffffffffffffffffffffffffffffffffffffffff16021790555060016006819055506001600581905550620003fb565b62000189816001620002a36401000000000262002826179091906401000000009004565b8073ffffffffffffffffffffffffffffffffffffffff167f561138658ca49a8540dc70dcfe64c9026c1c5b9344642242dd6562970f9c127860405160405180910390a250565b620001f3816002620002a36401000000000262002826179091906401000000009004565b8073ffffffffffffffffffffffffffffffffffffffff167f71ae26cad02663e3d92efd6ec56031a80d74a20c0ab4183faa8bf262261c9baa60405160405180910390a250565b6200025d816003620002a36401000000000262002826179091906401000000009004565b8073ffffffffffffffffffffffffffffffffffffffff167f28b26e7a3d20aedbc5f8f2ebf7da671c0491723a2b78f47a097b0e46dee0714260405160405180910390a250565b600073ffffffffffffffffffffffffffffffffffffffff168173ffffffffffffffffffffffffffffffffffffffff1614151515620002e057600080fd5b620002fb828262000366640100000000026401000000009004565b1515156200030857600080fd5b60018260000160008373ffffffffffffffffffffffffffffffffffffffff1673ffffffffffffffffffffffffffffffffffffffff16815260200190815260200160002060006101000a81548160ff0219169083151502179055505050565b60008073ffffffffffffffffffffffffffffffffffffffff168273ffffffffffffffffffffffffffffffffffffffff1614151515620003a457600080fd5b8260000160008373ffffffffffffffffffffffffffffffffffffffff1673ffffffffffffffffffffffffffffffffffffffff16815260200190815260200160002060009054906101000a900460ff16905092915050565b612b29806200040b6000396000f300608060405260043610610154576000357c0100000000000000000000000000000000000000000000000000000000900463ffffffff168063112940f91461015957806317d4a4911461019c5780632d923561146101f75780633a34061b1461022e57806341c0e1b5146103d95780635da09b88146103f05780635f8a5afa1461044b57806361e6982d1461048e57806366225ff9146104a5578063715018a6146105e257806377c45913146105f9578063834ff739146108575780638da5cb5b146108b25780638ec4f505146109095780638f32d59b1461094c578063a26be9991461097b578063ae143197146109a8578063bebe66d2146109d5578063d38ea5bf14610a02578063d7a5d5d314610a22578063db0e6a2f14610a4f578063de07f34e14610a66578063e7fb74c714610a7d578063f2fde38b14610a9d578063f30fc48014610ae0578063f61c899a14610b0d575b600080fd5b34801561016557600080fd5b5061019a600480360381019080803573ffffffffffffffffffffffffffffffffffffffff169060200190929190505050610b3a565b005b3480156101a857600080fd5b506101dd600480360381019080803573ffffffffffffffffffffffffffffffffffffffff169060200190929190505050610b5a565b604051808215151515815260200191505060405180910390f35b34801561020357600080fd5b5061022c6004803603810190808035906020019092919080359060200190929190505050610b77565b005b34801561023a57600080fd5b506103d760048036038101908080359060200190929190803573ffffffffffffffffffffffffffffffffffffffff169060200190929190803590602001908201803590602001908080601f0160208091040260200160405190810160405280939291908181526020018383808284378201915050505050509192919290803590602001908201803590602001908080601f0160208091040260200160405190810160405280939291908181526020018383808284378201915050505050509192919290803590602001908201803590602001908080601f0160208091040260200160405190810160405280939291908181526020018383808284378201915050505050509192919290803590602001908201803590602001908080601f0160208091040260200160405190810160405280939291908181526020018383808284378201915050505050509192919290803590602001908201803590602001908080601f0160208091040260200160405190810160405280939291908181526020018383808284378201915050505050509192919290505050610cc1565b005b3480156103e557600080fd5b506103ee611018565b005b3480156103fc57600080fd5b50610431600480360381019080803573ffffffffffffffffffffffffffffffffffffffff1690602001909291905050506110ab565b604051808215151515815260200191505060405180910390f35b34801561045757600080fd5b5061048c600480360381019080803573ffffffffffffffffffffffffffffffffffffffff1690602001909291905050506110c8565b005b34801561049a57600080fd5b506104a36110e8565b005b3480156104b157600080fd5b506104d0600480360381019080803590602001909291905050506110f3565b60405180898152602001888152602001878152602001806020018681526020018560098111156104fc57fe5b60ff1681526020018473ffffffffffffffffffffffffffffffffffffffff1673ffffffffffffffffffffffffffffffffffffffff1681526020018373ffffffffffffffffffffffffffffffffffffffff1673ffffffffffffffffffffffffffffffffffffffff168152602001828103825287818151815260200191508051906020019080838360005b838110156105a0578082015181840152602081019050610585565b50505050905090810190601f1680156105cd5780820380516001836020036101000a031916815260200191505b50995050505050505050505060405180910390f35b3480156105ee57600080fd5b506105f76112d0565b005b34801561060557600080fd5b50610624600480360381019080803590602001909291905050506113eb565b604051808981526020018881526020018773ffffffffffffffffffffffffffffffffffffffff1673ffffffffffffffffffffffffffffffffffffffff1681526020018673ffffffffffffffffffffffffffffffffffffffff1673ffffffffffffffffffffffffffffffffffffffff16815260200180602001806020018060200180602001858103855289818151815260200191508051906020019080838360005b838110156106e05780820151818401526020810190506106c5565b50505050905090810190601f16801561070d5780820380516001836020036101000a031916815260200191505b50858103845288818151815260200191508051906020019080838360005b8381101561074657808201518184015260208101905061072b565b50505050905090810190601f1680156107735780820380516001836020036101000a031916815260200191505b50858103835287818151815260200191508051906020019080838360005b838110156107ac578082015181840152602081019050610791565b50505050905090810190601f1680156107d95780820380516001836020036101000a031916815260200191505b50858103825286818151815260200191508051906020019080838360005b838110156108125780820151818401526020810190506107f7565b50505050905090810190601f16801561083f5780820380516001836020036101000a031916815260200191505b509c5050505050505050505050505060405180910390f35b34801561086357600080fd5b50610898600480360381019080803573ffffffffffffffffffffffffffffffffffffffff169060200190929190505050611782565b604051808215151515815260200191505060405180910390f35b3480156108be57600080fd5b506108c761179f565b604051808273ffffffffffffffffffffffffffffffffffffffff1673ffffffffffffffffffffffffffffffffffffffff16815260200191505060405180910390f35b34801561091557600080fd5b5061094a600480360381019080803573ffffffffffffffffffffffffffffffffffffffff1690602001909291905050506117c8565b005b34801561095857600080fd5b506109616117e8565b604051808215151515815260200191505060405180910390f35b34801561098757600080fd5b506109a66004803603810190808035906020019092919050505061183f565b005b3480156109b457600080fd5b506109d3600480360381019080803590602001909291905050506118fb565b005b3480156109e157600080fd5b50610a00600480360381019080803590602001909291905050506119b7565b005b610a2060048036038101908080359060200190929190505050611ae5565b005b348015610a2e57600080fd5b50610a4d60048036038101908080359060200190929190505050611dac565b005b348015610a5b57600080fd5b50610a64611eda565b005b348015610a7257600080fd5b50610a7b611ee5565b005b610a9b60048036038101908080359060200190929190505050611ef0565b005b348015610aa957600080fd5b50610ade600480360381019080803573ffffffffffffffffffffffffffffffffffffffff1690602001909291905050506121b8565b005b348015610aec57600080fd5b50610b0b60048036038101908080359060200190929190505050612220565b005b348015610b1957600080fd5b50610b386004803603810190808035906020019092919050505061234e565b005b610b4333611782565b1515610b4e57600080fd5b610b578161247c565b50565b6000610b708260016124d690919063ffffffff16565b9050919050565b8160016009811115610b8557fe5b60076000838152602001908152602001600020600b0160009054906101000a900460ff166009811115610bb457fe5b141515610bc057600080fd5b6007600084815260200190815260200160002060020160009054906101000a900473ffffffffffffffffffffffffffffffffffffffff168073ffffffffffffffffffffffffffffffffffffffff163373ffffffffffffffffffffffffffffffffffffffff16141515610c3157600080fd5b8260076000868152602001908152602001600020600a0181905550600260076000868152602001908152602001600020600b0160006101000a81548160ff02191690836009811115610c7f57fe5b02179055507fa96ae0fc3224ebd79eebfe54bd130cc9cb94416cddd1f2386115e00b72532468846040518082815260200191505060405180910390a150505050565b610cc9612985565b878160200181815250506006548160000181815250508760065401816101000181815250508181610120018190525086816040019073ffffffffffffffffffffffffffffffffffffffff16908173ffffffffffffffffffffffffffffffffffffffff168152505086816060019073ffffffffffffffffffffffffffffffffffffffff16908173ffffffffffffffffffffffffffffffffffffffff1681525050858160800181905250848160a00181905250838160c00181905250828160e0018190525060008161016001906009811115610d9f57fe5b90816009811115610dac57fe5b8152505080600760008a8152602001908152602001600020600082015181600001556020820151816001015560408201518160020160006101000a81548173ffffffffffffffffffffffffffffffffffffffff021916908373ffffffffffffffffffffffffffffffffffffffff16021790555060608201518160030160006101000a81548173ffffffffffffffffffffffffffffffffffffffff021916908373ffffffffffffffffffffffffffffffffffffffff1602179055506080820151816004019080519060200190610e82929190612a58565b5060a0820151816005019080519060200190610e9f929190612a58565b5060c0820151816006019080519060200190610ebc929190612a58565b5060e0820151816007019080519060200190610ed9929190612a58565b506101008201518160080155610120820151816009019080519060200190610f02929190612a58565b5061014082015181600a015561016082015181600b0160006101000a81548160ff02191690836009811115610f3357fe5b021790555061018082015181600b0160016101000a81548173ffffffffffffffffffffffffffffffffffffffff021916908373ffffffffffffffffffffffffffffffffffffffff1602179055506101a082015181600c0160006101000a81548173ffffffffffffffffffffffffffffffffffffffff021916908373ffffffffffffffffffffffffffffffffffffffff1602179055509050506001600654016006819055507fe275e10d3974c62002ca87bc817e8eda66bc14081dc55f82d37f1bad7ec1c150886040518082815260200191505060405180910390a15050505050505050565b600460009054906101000a900473ffffffffffffffffffffffffffffffffffffffff1673ffffffffffffffffffffffffffffffffffffffff163373ffffffffffffffffffffffffffffffffffffffff1614156110a957600460009054906101000a900473ffffffffffffffffffffffffffffffffffffffff1673ffffffffffffffffffffffffffffffffffffffff16ff5b565b60006110c18260026124d690919063ffffffff16565b9050919050565b6110d133610b5a565b15156110dc57600080fd5b6110e58161256a565b50565b6110f1336125c4565b565b60008060006060600080600080600760008a8152602001908152602001600020600001549750600760008a8152602001908152602001600020600101549650600760008a8152602001908152602001600020600801549550600760008a81526020019081526020016000206009018054600181600116156101000203166002900480601f0160208091040260200160405190810160405280929190818152602001828054600181600116156101000203166002900480156111f55780601f106111ca576101008083540402835291602001916111f5565b820191906000526020600020905b8154815290600101906020018083116111d857829003601f168201915b50505050509450600760008a8152602001908152602001600020600a01549350600760008a8152602001908152602001600020600b0160009054906101000a900460ff169250600760008a8152602001908152602001600020600b0160019054906101000a900473ffffffffffffffffffffffffffffffffffffffff169150600760008a8152602001908152602001600020600c0160009054906101000a900473ffffffffffffffffffffffffffffffffffffffff169050878787878787878797509750975097509750975097509750919395975091939597565b600460009054906101000a900473ffffffffffffffffffffffffffffffffffffffff1673ffffffffffffffffffffffffffffffffffffffff163373ffffffffffffffffffffffffffffffffffffffff1614151561132c57600080fd5b600073ffffffffffffffffffffffffffffffffffffffff166000809054906101000a900473ffffffffffffffffffffffffffffffffffffffff1673ffffffffffffffffffffffffffffffffffffffff167f5c486528ec3e3f0ea91181cff8116f02bfa350e03b8b6f12e00765adbb5af85c60405160405180910390a360008060006101000a81548173ffffffffffffffffffffffffffffffffffffffff021916908373ffffffffffffffffffffffffffffffffffffffff160217905550565b600080600080606080606080600760008a8152602001908152602001600020600001549750600760008a8152602001908152602001600020600101549650600760008a815260200190815260200160002060020160009054906101000a900473ffffffffffffffffffffffffffffffffffffffff169550600760008a815260200190815260200160002060030160009054906101000a900473ffffffffffffffffffffffffffffffffffffffff169450600760008a81526020019081526020016000206004018054600181600116156101000203166002900480601f0160208091040260200160405190810160405280929190818152602001828054600181600116156101000203166002900480156115455780601f1061151a57610100808354040283529160200191611545565b820191906000526020600020905b81548152906001019060200180831161152857829003601f168201915b50505050509350600760008a81526020019081526020016000206005018054600181600116156101000203166002900480601f0160208091040260200160405190810160405280929190818152602001828054600181600116156101000203166002900480156115f65780601f106115cb576101008083540402835291602001916115f6565b820191906000526020600020905b8154815290600101906020018083116115d957829003601f168201915b50505050509250600760008a81526020019081526020016000206006018054600181600116156101000203166002900480601f0160208091040260200160405190810160405280929190818152602001828054600181600116156101000203166002900480156116a75780601f1061167c576101008083540402835291602001916116a7565b820191906000526020600020905b81548152906001019060200180831161168a57829003601f168201915b50505050509150600760008a81526020019081526020016000206007018054600181600116156101000203166002900480601f0160208091040260200160405190810160405280929190818152602001828054600181600116156101000203166002900480156117585780601f1061172d57610100808354040283529160200191611758565b820191906000526020600020905b81548152906001019060200180831161173b57829003601f168201915b50505050509050878787878787878797509750975097509750975097509750919395975091939597565b60006117988260036124d690919063ffffffff16565b9050919050565b60008060009054906101000a900473ffffffffffffffffffffffffffffffffffffffff16905090565b6117d1336110ab565b15156117dc57600080fd5b6117e58161261e565b50565b60008060009054906101000a900473ffffffffffffffffffffffffffffffffffffffff1673ffffffffffffffffffffffffffffffffffffffff163373ffffffffffffffffffffffffffffffffffffffff1614905090565b806004600981111561184d57fe5b60076000838152602001908152602001600020600b0160009054906101000a900460ff16600981111561187c57fe5b14151561188857600080fd5b600560076000848152602001908152602001600020600b0160006101000a81548160ff021916908360098111156118bb57fe5b02179055507fa8142743f8f70a4c26f3691cf4ed59718381fb2f18070ec52be1f1022d855557826040518082815260200191505060405180910390a15050565b806008600981111561190957fe5b60076000838152602001908152602001600020600b0160009054906101000a900460ff16600981111561193857fe5b14151561194457600080fd5b600960076000848152602001908152602001600020600b0160006101000a81548160ff0219169083600981111561197757fe5b02179055507f86c8b6a3a120827f249ca638dc2c9b30cc53732a930f8449879dd5b99ba91d42826040518082815260200191505060405180910390a15050565b80600560098111156119c557fe5b60076000838152602001908152602001600020600b0160009054906101000a900460ff1660098111156119f457fe5b141515611a0057600080fd5b6007600083815260200190815260200160002060020160009054906101000a900473ffffffffffffffffffffffffffffffffffffffff168073ffffffffffffffffffffffffffffffffffffffff163373ffffffffffffffffffffffffffffffffffffffff16141515611a7157600080fd5b600660076000858152602001908152602001600020600b0160006101000a81548160ff02191690836009811115611aa457fe5b02179055507f2882ba60c58f40fb814b14fc4854a1384d2c04751510e7862833a9259cae3d08836040518082815260200191505060405180910390a1505050565b60008160066009811115611af557fe5b60076000838152602001908152602001600020600b0160009054906101000a900460ff166009811115611b2457fe5b141515611b3057600080fd5b60076000848152602001908152602001600020600a0154803410151515611b5657600080fd5b83600080339550856007600089815260200190815260200160002060020160006101000a81548173ffffffffffffffffffffffffffffffffffffffff021916908373ffffffffffffffffffffffffffffffffffffffff1602179055508560076000898152602001908152602001600020600c0160006101000a81548173ffffffffffffffffffffffffffffffffffffffff021916908373ffffffffffffffffffffffffffffffffffffffff1602179055506007806000898152602001908152602001600020600b0160006101000a81548160ff02191690836009811115611c3957fe5b021790555060076000888152602001908152602001600020600b0160019054906101000a900473ffffffffffffffffffffffffffffffffffffffff1673ffffffffffffffffffffffffffffffffffffffff166108fc600760008a8152602001908152602001600020600a01549081150290604051600060405180830381858888f19350505050158015611cd0573d6000803e3d6000fd5b507f653d56639fee6b566a5c804764e9689de38645f0b733df89a36a1b7b42173dd8876040518082815260200191505060405180910390a160076000848152602001908152602001600020600a01549150813403905060076000848152602001908152602001600020600c0160009054906101000a900473ffffffffffffffffffffffffffffffffffffffff1673ffffffffffffffffffffffffffffffffffffffff166108fc829081150290604051600060405180830381858888f19350505050158015611da2573d6000803e3d6000fd5b5050505050505050565b8060006009811115611dba57fe5b60076000838152602001908152602001600020600b0160009054906101000a900460ff166009811115611de957fe5b141515611df557600080fd5b6007600083815260200190815260200160002060020160009054906101000a900473ffffffffffffffffffffffffffffffffffffffff168073ffffffffffffffffffffffffffffffffffffffff163373ffffffffffffffffffffffffffffffffffffffff16141515611e6657600080fd5b600160076000858152602001908152602001600020600b0160006101000a81548160ff02191690836009811115611e9957fe5b02179055507f06acbfb32bcf8383f3b0a768b70ac9ec234ea0f2d3b9c77fa6a2de69b919aad1836040518082815260200191505060405180910390a1505050565b611ee333612678565b565b611eee336126d2565b565b60008160026009811115611f0057fe5b60076000838152602001908152602001600020600b0160009054906101000a900460ff166009811115611f2f57fe5b141515611f3b57600080fd5b60076000848152602001908152602001600020600a0154803410151515611f6157600080fd5b83600080339550856007600089815260200190815260200160002060020160006101000a81548173ffffffffffffffffffffffffffffffffffffffff021916908373ffffffffffffffffffffffffffffffffffffffff1602179055508560076000898152602001908152602001600020600b0160016101000a81548173ffffffffffffffffffffffffffffffffffffffff021916908373ffffffffffffffffffffffffffffffffffffffff160217905550600360076000898152602001908152602001600020600b0160006101000a81548160ff0219169083600981111561204557fe5b02179055506007600088815260200190815260200160002060030160009054906101000a900473ffffffffffffffffffffffffffffffffffffffff1673ffffffffffffffffffffffffffffffffffffffff166108fc600760008a8152602001908152602001600020600a01549081150290604051600060405180830381858888f193505050501580156120dc573d6000803e3d6000fd5b507f92f64ca637d023f354075a4be751b169c1a8a9ccb6d33cdd0cb3520543995727876040518082815260200191505060405180910390a160076000848152602001908152602001600020600a01549150813403905060076000848152602001908152602001600020600b0160019054906101000a900473ffffffffffffffffffffffffffffffffffffffff1673ffffffffffffffffffffffffffffffffffffffff166108fc829081150290604051600060405180830381858888f193505050501580156121ae573d6000803e3d6000fd5b5050505050505050565b600460009054906101000a900473ffffffffffffffffffffffffffffffffffffffff1673ffffffffffffffffffffffffffffffffffffffff163373ffffffffffffffffffffffffffffffffffffffff1614151561221457600080fd5b61221d8161272c565b50565b806007600981111561222e57fe5b60076000838152602001908152602001600020600b0160009054906101000a900460ff16600981111561225d57fe5b14151561226957600080fd5b60076000838152602001908152602001600020600b0160019054906101000a900473ffffffffffffffffffffffffffffffffffffffff168073ffffffffffffffffffffffffffffffffffffffff163373ffffffffffffffffffffffffffffffffffffffff161415156122da57600080fd5b600860076000858152602001908152602001600020600b0160006101000a81548160ff0219169083600981111561230d57fe5b02179055507f9b3b66e2380b690bae22c73ef1428fb0c91e72fe14a4b6defa13035214187aff836040518082815260200191505060405180910390a1505050565b806003600981111561235c57fe5b60076000838152602001908152602001600020600b0160009054906101000a900460ff16600981111561238b57fe5b14151561239757600080fd5b6007600083815260200190815260200160002060030160009054906101000a900473ffffffffffffffffffffffffffffffffffffffff168073ffffffffffffffffffffffffffffffffffffffff163373ffffffffffffffffffffffffffffffffffffffff1614151561240857600080fd5b600460076000858152602001908152602001600020600b0160006101000a81548160ff0219169083600981111561243b57fe5b02179055507ff00b9a5725b80c54016f42114f6ed7792d22eecb116011c4afac29c57bef6c95836040518082815260200191505060405180910390a1505050565b61249081600361282690919063ffffffff16565b8073ffffffffffffffffffffffffffffffffffffffff167f28b26e7a3d20aedbc5f8f2ebf7da671c0491723a2b78f47a097b0e46dee0714260405160405180910390a250565b60008073ffffffffffffffffffffffffffffffffffffffff168273ffffffffffffffffffffffffffffffffffffffff161415151561251357600080fd5b8260000160008373ffffffffffffffffffffffffffffffffffffffff1673ffffffffffffffffffffffffffffffffffffffff16815260200190815260200160002060009054906101000a900460ff16905092915050565b61257e81600161282690919063ffffffff16565b8073ffffffffffffffffffffffffffffffffffffffff167f561138658ca49a8540dc70dcfe64c9026c1c5b9344642242dd6562970f9c127860405160405180910390a250565b6125d88160036128d690919063ffffffff16565b8073ffffffffffffffffffffffffffffffffffffffff167fe3f5ed5f263f1f01764a96edfc7d025f511ec5f7d180e8816908b78bcf74f09860405160405180910390a250565b61263281600261282690919063ffffffff16565b8073ffffffffffffffffffffffffffffffffffffffff167f71ae26cad02663e3d92efd6ec56031a80d74a20c0ab4183faa8bf262261c9baa60405160405180910390a250565b61268c8160026128d690919063ffffffff16565b8073ffffffffffffffffffffffffffffffffffffffff167fdb7176e79cffef81cb01767dd0447a0b24bb72ca9778d4b245581086b2a7e6db60405160405180910390a250565b6126e68160016128d690919063ffffffff16565b8073ffffffffffffffffffffffffffffffffffffffff167f2fed5abf6a80d6dfe30b4895481b2fc5d7dce5f8f7b931832f4a2947d5040c7f60405160405180910390a250565b600073ffffffffffffffffffffffffffffffffffffffff168173ffffffffffffffffffffffffffffffffffffffff161415151561276857600080fd5b8073ffffffffffffffffffffffffffffffffffffffff166000809054906101000a900473ffffffffffffffffffffffffffffffffffffffff1673ffffffffffffffffffffffffffffffffffffffff167f5c486528ec3e3f0ea91181cff8116f02bfa350e03b8b6f12e00765adbb5af85c60405160405180910390a3806000806101000a81548173ffffffffffffffffffffffffffffffffffffffff021916908373ffffffffffffffffffffffffffffffffffffffff16021790555050565b600073ffffffffffffffffffffffffffffffffffffffff168173ffffffffffffffffffffffffffffffffffffffff161415151561286257600080fd5b61286c82826124d6565b15151561287857600080fd5b60018260000160008373ffffffffffffffffffffffffffffffffffffffff1673ffffffffffffffffffffffffffffffffffffffff16815260200190815260200160002060006101000a81548160ff0219169083151502179055505050565b600073ffffffffffffffffffffffffffffffffffffffff168173ffffffffffffffffffffffffffffffffffffffff161415151561291257600080fd5b61291c82826124d6565b151561292757600080fd5b60008260000160008373ffffffffffffffffffffffffffffffffffffffff1673ffffffffffffffffffffffffffffffffffffffff16815260200190815260200160002060006101000a81548160ff0219169083151502179055505050565b6101c0604051908101604052806000815260200160008152602001600073ffffffffffffffffffffffffffffffffffffffff168152602001600073ffffffffffffffffffffffffffffffffffffffff1681526020016060815260200160608152602001606081526020016060815260200160008152602001606081526020016000815260200160006009811115612a1857fe5b8152602001600073ffffffffffffffffffffffffffffffffffffffff168152602001600073ffffffffffffffffffffffffffffffffffffffff1681525090565b828054600181600116156101000203166002900490600052602060002090601f016020900481019282601f10612a9957805160ff1916838001178555612ac7565b82800160010185558215612ac7579182015b82811115612ac6578251825591602001919060010190612aab565b5b509050612ad49190612ad8565b5090565b612afa91905b80821115612af6576000816000905550600101612ade565b5090565b905600a165627a7a7230582016e886bf13f9d4f533a9784ef06a09ac177f79e1c6669465d28feff9d93f7eb50029",
  "source": "pragma solidity ^0.4.24;\n\nimport \"../core/Ownable.sol\";\nimport \"../accessControl/ManufacturerRole.sol\";\nimport \"../accessControl/RetailerRole.sol\";\nimport \"../accessControl/ConsumerRole.sol\";\n\n// Define a contract 'Supplychain'\ncontract SupplyChain is  Ownable, ManufacturerRole, RetailerRole, ConsumerRole{\n\n    // Define 'owner'\n    address cowner;\n\n    // Define a variable called 'upc' for Universal Product Code (UPC)\n    uint  upc;\n\n    // Define a variable called 'sku' for Stock Keeping Unit (SKU)\n    uint  sku;\n\n    // Define a public mapping 'items' that maps the UPC to an Item.\n    mapping (uint => Item) items;\n\n    // Define a public mapping 'itemsHistory' that maps the UPC to an array of TxHash, \n    // that track its journey through the supply chain -- to be sent from DApp.\n    mapping (uint => string[]) itemsHistory;\n    \n    // Define enum 'State' with the following values:\n    enum State \n    { \n      Procured, \n      Created,  \n      ForSale,   \n      Sold,      \n      Shipped,   \n      Received,  \n      Displayed, \n      Purchased, \n      Packed,  \n      CReceived   \n    }\n\n    State constant defaultState = State.Procured;\n\n    // Define a struct 'Item' with the following fields:\n    struct Item {\n        uint    sku;  // Stock Keeping Unit (SKU)\n        uint    upc; // Universal Product Code (UPC), generated by the Manufacturer, goes on the package, can be verified by the Consumer\n        address ownerID;  // Metamask-Ethereum address of the current owner as the product moves through 10 stages\n        address originManufacturerID; // Metamask-Ethereum address of the Manufacturer\n        string  originManufacturerName; // Manufacturer Name\n        string  originManufacturerInformation;  // Manufacturer Information\n        string  originManufacturerCity; // Manufacturer city\n        string  originManufacturerCountry;  // Manufacturer country\n        uint    productID;  // Product ID potentially a combination of upc + sku\n        string  productNotes; // Product Notes\n        uint    productPrice; // Product Price\n        State   itemState;  // Product State as represented in the enum above\n        address retailerID; // Metamask-Ethereum address of the Retailer\n        address consumerID; // Metamask-Ethereum address of the Consumer\n    }\n\n    // Define 8 events with the same 10 state values and accept 'upc' as input argument\n    event Procured(uint upc);\n    event Created(uint upc);\n    event ForSale(uint upc);\n    event Sold(uint upc);\n    event Shipped(uint upc);\n    event Received(uint upc);\n    event Displayed(uint upc);\n    event Purchased(uint upc);\n    event Packed(uint upc);\n    event CReceived(uint upc);\n\n    // Define a modifer that checks to see if msg.sender == owner of the contract\n    modifier onlyOwner() {\n        require(msg.sender == cowner);\n        _;\n    }\n\n    // Define a modifer that verifies the Caller\n    modifier verifyCaller (address _address) {\n        require(msg.sender == _address); \n        _;\n    }\n\n    // Define a modifier that checks if the paid amount is sufficient to cover the price\n    modifier paidEnoughRetailer(uint _price) { \n        require(msg.value >= _price); \n        _;\n    }\n\n    // Define a modifier that checks if the paid amount is sufficient to cover the price\n    modifier paidEnoughConsumer(uint _price) { \n        require(msg.value >= _price); \n        _;\n    }\n    \n    // Define a modifier that checks the price and refunds the remaining balance\n    // retailer is buying at 3x price\n    modifier checkValueRetailer(uint _upc) {\n        _;\n        uint _price = items[_upc].productPrice;\n        uint amountToReturn = msg.value - _price;\n        items[_upc].retailerID.transfer(amountToReturn);\n    }\n\n    // Define a modifier that checks the price and refunds the remaining balance\n    // consumer is buying at 6x price\n    modifier checkValueConsumer(uint _upc) {\n        _;\n        uint _price = items[_upc].productPrice;\n        uint amountToReturn = msg.value - _price;\n        items[_upc].consumerID.transfer(amountToReturn);\n    }\n\n    // Define a modifier that checks if an item.state of a upc is Procured\n    modifier procured(uint _upc) {\n        require(items[_upc].itemState == State.Procured);\n        _;\n    }\n\n    // Define a modifier that checks if an item.state of a upc is Created\n    modifier created(uint _upc) {\n        require(items[_upc].itemState == State.Created);\n        _;\n    }\n \n\n    // Define a modifier that checks if an item.state of a upc is ForSale\n    modifier forSale(uint _upc) {\n        require(items[_upc].itemState == State.ForSale);\n        _;\n    }\n\n    // Define a modifier that checks if an item.state of a upc is Sold\n    modifier sold(uint _upc) {\n        require(items[_upc].itemState == State.Sold);\n        _;\n    }\n    \n    // Define a modifier that checks if an item.state of a upc is Shipped\n    modifier shipped(uint _upc) {\n        require(items[_upc].itemState == State.Shipped);\n        _;\n    }\n\n    // Define a modifier that checks if an item.state of a upc is Received\n    modifier received(uint _upc) {\n        require(items[_upc].itemState == State.Received);\n        _;\n    }\n\n    // Define a modifier that checks if an item.state of a upc is Displayed\n    modifier displayed(uint _upc) {\n        require(items[_upc].itemState == State.Displayed);\n        _;\n    }\n\n    // Define a modifier that checks if an item.state of a upc is Purchased\n    modifier purchased(uint _upc) {\n        require(items[_upc].itemState == State.Purchased);\n        _;     \n    }\n\n    // Define a modifier that checks if an item.state of a upc is Packed\n    modifier packed(uint _upc) {\n        require(items[_upc].itemState == State.Packed);\n        _;     \n    }\n\n    // Define a modifier that checks if an item.state of a upc is CReceived\n    modifier creceived(uint _upc) {\n        require(items[_upc].itemState == State.CReceived);\n        _;     \n    }\n\n    // In the constructor set 'owner' to the address that instantiated the contract\n    // and set 'sku' to 1\n    // and set 'upc' to 1\n    constructor() public payable {\n        cowner = msg.sender;\n        sku = 1;\n        upc = 1;\n    }\n\n    // Define a function 'kill' if required\n    function kill() public {\n        if (msg.sender == cowner) {\n            selfdestruct(cowner);\n        }\n    }\n\n    // Define a function 'procureItem' that allows a manufacturer to mark an item 'Procured'\n    function procureItem(uint _upc, address _originManufacturerID, string _originManufacturerName, string _originManufacturerInformation, string  _originManufacturerCity, string  _originManufacturerCountry, string  _productNotes) public \n    {\n        // Add the new item as part of Harvest\n        Item memory newItem;\n        newItem.upc = _upc;\n        newItem.sku = sku;\n        newItem.productID = sku + _upc;\n        newItem.productNotes = _productNotes;\n        newItem.ownerID = _originManufacturerID;\n        newItem.originManufacturerID = _originManufacturerID;\n        newItem.originManufacturerName = _originManufacturerName;\n        newItem.originManufacturerInformation = _originManufacturerInformation;\n        newItem.originManufacturerCity = _originManufacturerCity;\n        newItem.originManufacturerCountry = _originManufacturerCountry;\n        newItem.itemState = defaultState;\n\n        items[_upc] = newItem;\n        \n        // Increment sku\n        sku = sku + 1;\n        // Emit the appropriate event\n        emit Procured(_upc);\n    }\n\n\n\n    // Define a function 'createItem' that allows a Manufacturer to mark an item 'Created'\n    function createItem(uint _upc) public \n    // Call modifier to check if upc has passed previous supply chain stages\n    procured(_upc)\n    // Call modifier to verify caller of this function\n    verifyCaller(items[_upc].ownerID)\n    {\n        // Update the appropriate fields\n        items[_upc].itemState = State.Created;\n        // Emit the appropriate event\n        emit Created(_upc);\n    }\n\n    // Define a function 'sellItem' that allows a Manufacturer to mark an item 'ForSale'\n    //putting item forSale by manufacturer, price is set by manufacturer\n    function sellItem(uint _upc, uint _price) public \n    // Call modifier to check if upc has passed previous supply chain stage\n    created(_upc)\n    // Call modifier to verify caller of this function\n    verifyCaller(items[_upc].ownerID)\n    {\n        // Update the appropriate fields\n        items[_upc].productPrice = _price;\n        items[_upc].itemState = State.ForSale;\n        // Emit the appropriate event\n        emit ForSale(_upc);\n    }\n\n//-------------------------------------------------------------------------------------------------------------------\n    // Define a function 'buyItem' that allows the disributor to mark an item 'Sold'\n    // Use the above defined modifiers to check if the item is available for sale, if the buyer has paid enough, \n    // and any excess ether sent is refunded back to the buyer\n    function buyItem(uint _upc) public payable\n      // Call modifier to check if upc has passed previous supply chain stage\n      forSale(_upc)\n      // Call modifer to check sif retailer has paid enough\n      paidEnoughRetailer(items[_upc].productPrice)\n      // Call modifer to send any excess ether back to buyer\n      checkValueRetailer(_upc)\n      {\n      \n      // Update the appropriate fields - ownerID, retailerId, itemState\n        address retailer = msg.sender;\n        items[_upc].ownerID = retailer;\n        items[_upc].retailerID = retailer;\n        items[_upc].itemState = State.Sold;\n\n        // Transfer money to farmer\n        items[_upc].originManufacturerID.transfer(items[_upc].productPrice);\n\n        // Emit the appropriate event\n        emit Sold(_upc);    \n      \n    }\n\n    // Define a function 'shipItem' that allows the manufacturer to mark an item 'Shipped'\n    // Use the above modifers to check if the item is sold\n    function shipItem(uint _upc) public \n      // Call modifier to check if upc has passed previous supply chain stage\n      sold(_upc)\n      // Call modifier to verify caller of this function\n      verifyCaller(items[_upc].originManufacturerID)\n      {\n        // Update the appropriate fields\n        items[_upc].itemState = State.Shipped;\n        // Emit the appropriate event\n        emit Shipped(_upc);\n    }\n\n    // Define a function 'receiveItem' that allows the retailer to mark an item 'Received'\n    // Use the above modifiers to check if the item is shipped\n    function receiveItem(uint _upc) public \n      // Call modifier to check if upc has passed previous supply chain stage\n      shipped(_upc)\n      // Access Control List enforced by calling Smart Contract / DApp\n      {\n        // Update the appropriate fields - ownerID, retailerID, itemState\n        items[_upc].itemState = State.Received;\n        // Emit the appropriate event\n        emit Received(_upc);\n    }\n\n    // Define a function 'sellItem' that allows a Manufacturer to mark an item 'ForSale'\n    //putting item forSale by manufacturer, price is set by manufacturer\n    function displayItem(uint _upc) public \n    // Call modifier to check if upc has passed previous supply chain stage\n    received(_upc)\n    // Call modifier to verify caller of this function\n    verifyCaller(items[_upc].ownerID)\n    {\n        // Update the appropriate fields\n        items[_upc].itemState = State.Displayed;   //ssame as for sale by retailer\n        // Emit the appropriate event\n        emit Displayed(_upc);\n    }\n\n    // Define a function 'purchaseItem' that allows the consumer to mark an item 'Purchased'\n    // Use the above modifiers to check if the item is received\n    function purchaseItem(uint _upc) public payable\n      // Call modifier to check if upc has passed previous supply chain stage\n      displayed(_upc)\n      // Call modifer to check sif retailer has paid enough\n      paidEnoughConsumer(items[_upc].productPrice)\n      // Call modifer to send any excess ether back to buyer\n      checkValueConsumer(_upc)\n      {\n      \n      // Update the appropriate fields - ownerID, retailerId, itemState\n        address consumer = msg.sender;\n        items[_upc].ownerID = consumer;\n        items[_upc].consumerID = consumer;\n        items[_upc].itemState = State.Purchased;\n\n        // Transfer money to farmer\n        items[_upc].retailerID.transfer(items[_upc].productPrice);\n\n        // Emit the appropriate event\n        emit Purchased(_upc);    \n    }\n\n\n    // Define a function 'packItem' that allows the retailer to mark an item 'Packed'\n    // Use the above modifers to check if the item is sold\n    function packItem(uint _upc) public \n      // Call modifier to check if upc has passed previous supply chain stage\n      purchased(_upc)\n      // Call modifier to verify caller of this function\n      verifyCaller(items[_upc].retailerID)\n      {\n        // Update the appropriate fields\n        items[_upc].itemState = State.Packed;\n        // Emit the appropriate event\n        emit Packed(_upc);\n    }    \n\n\n    // Define a function 'creceiveItem' that allows the retailer to mark an item 'CReceived'\n    // Use the above modifiers to check if the item is shipped\n    function creceiveItem(uint _upc) public \n      // Call modifier to check if upc has passed previous supply chain stage\n      packed(_upc)\n      // Access Control List enforced by calling Smart Contract / DApp\n      {\n        //Just changing state is enough  \n        items[_upc].itemState = State.CReceived;\n        // Emit the appropriate event\n        emit CReceived(_upc);\n    }\n\n\n    // Define a function 'fetchItemBufferOne' that fetches the data\n    function fetchItemBufferOne(uint _upc) public view returns \n    (\n    uint    itemSKU,\n    uint    itemUPC,\n    address ownerID,\n    address originManufacturerID,\n    string  originManufacturerName,\n    string  originManufacturerInformation,\n    string  originManufacturerCity,\n    string  originManufacturerCountry\n    ) \n    {\n        // Assign values to the 8 parameters\n        itemSKU = items[_upc].sku;\n        itemUPC = items[_upc].upc;\n        ownerID = items[_upc].ownerID;\n        originManufacturerID = items[_upc].originManufacturerID;\n        originManufacturerName = items[_upc].originManufacturerName;\n        originManufacturerInformation = items[_upc].originManufacturerInformation;\n        originManufacturerCity = items[_upc].originManufacturerCity;\n        originManufacturerCountry = items[_upc].originManufacturerCountry;\n        \n        return \n        (\n        itemSKU,\n        itemUPC,\n        ownerID,\n        originManufacturerID,\n        originManufacturerName,\n        originManufacturerInformation,\n        originManufacturerCity,\n        originManufacturerCountry\n        );\n    }\n\n    // Define a function 'fetchItemBufferTwo' that fetches the data\n    function fetchItemBufferTwo(uint _upc) public view returns \n    (\n    uint    itemSKU,\n    uint    itemUPC,\n    uint    productID,\n    string  productNotes,\n    uint    productPrice,\n    State    itemState,\n    address retailerID,\n    address consumerID\n    ) \n    {\n      // Assign values to the 8 parameters\n        itemSKU = items[_upc].sku;\n        itemUPC = items[_upc].upc;\n        productID = items[_upc].productID;\n        productNotes = items[_upc].productNotes;\n        productPrice = items[_upc].productPrice;\n        itemState = items[_upc].itemState;\n        retailerID = items[_upc].retailerID;\n        consumerID = items[_upc].consumerID;\n      \n        return \n        (\n        itemSKU,\n        itemUPC,\n        productID,\n        productNotes,\n        productPrice,\n        itemState,\n        retailerID,\n        consumerID\n        );\n    }\n}\n",
  "sourcePath": "/Users/deepakgupta/Udacity-BlockchainDevND/Blockchain-SCM/SCM/project-6/contracts/base/SupplyChain.sol",
  "compiler": {
    "name": "solc",
    "version": "0.4.24+commit.e67f0147.Emscripten.clang"
  },
  "schemaVersion": "2.0.1",
  "updatedAt": "2019-03-20T17:29:57.361Z"
}